:020000040000FA
:10000000B013002031010000E90C000041010000A4
:10001000430100004501000047010000000000000E
:100020000000000000000000000000004901000086
:100030004B010000000000004D01000041110000D4
:100040004F0100004F0100004F0100004F01000070
:100050004F0100004F0100004F0100004F01000060
:100060004F0100004F0100004F0100004F01000050
:100070004F0100004F0100004F0100005912000025
:100080004F0100004F0100004F0100004F01000030
:100090004F0100004F0100004F0100004F01000020
:1000A000310400004F0100004F0100004F0100002B
:1000B0004F0100004F0100004F0100004F01000000
:1000C0004F0100004F0100004F0100004F010000F0
:1000D0004F0100004F0100004F0100004F010000E0
:1000E0004F0100004F0100004F0100004F010000D0
:1000F0004F0100004F0100004F0100004F010000C0
:100100004F0100004F0100004F0100004F010000AF
:100110004F0100004F0100004F010000DFF80CD03C
:1001200000F04CF800480047AD160000B013002066
:10013000074880470748004730BFFFF7FDFFFEE74D
:10014000FEE7FEE7FEE7FEE7FEE7FEE7FEE7FEE787
:10015000210D00001D0100002DE9F05F0546002083
:1001600092469B4688460646814640241BE0284628
:1001700041464746224600F042F853465A46C01AC6
:10018000914110D311461846224600F029F82D1A45
:1001900067EB01084F4622460120002100F020F8BD
:1001A00017EB00094E41201EA4F10104DFDC484694
:1001B00031462A464346BDE8F09F0000064C074DF5
:1001C00006E0E06840F0010394E807009847103427
:1001D000AC42F6D300F023F8E81E0000081F000030
:1001E000202A04DB203A00FA02F1002070479140F7
:1001F000C2F1200320FA03F3194390407047202AEC
:1002000004DB203A21FA02F00021704721FA02F3C0
:10021000D040C2F12002914008431946704710B502
:1002200000F0C4FFFFF77EFF10BD000070B54FF077
:100230008040806A40F004004FF08041886212489C
:10024000006820F0300545F020000F4908600F4895
:10025000806820F000700D49886000F075FF00F0A4
:10026000D3F8041E01D0204670BD00F03FFD041EEF
:1002700001D02046F8E700F077FC041E01D02046AC
:10028000F2E70020F0E70000006800400090024024
:1002900070B504462078AA2801D0012070BDE0790D
:1002A000552801D00120F9E7A07810B101286ED1BE
:1002B00048E0E07820B101280CD003283ED11DE0B1
:1002C0002579A0794D49485508464119284601F03D
:1002D0007BFA35E025796079494921F81500A07944
:1002E00011F8151040EA0120454921F8150008468B
:1002F00000EB4501284601F0E9FB21E020790328C5
:1003000002D0042816D10AE0A079012802D101F018
:1003100009FA03E0A07908B901F0FCF90CE0A07932
:10032000012802D101F00EFA03E0A07908B901F02A
:1003300001FA01E00120B1E700BF01E00120ADE7D3
:1003400000BF57E0E07805284ED2DFE800F0030F49
:1003500021302C00257929484119284601F020FA3E
:10036000002060712548405DA0713FE02579244858
:1003700000EB4501284601F035FB214830F8150017
:10038000001260711E4810F81500A0712EE02FE0D9
:1003900025791C4830F8150000126071194810F8D2
:1003A0001500A07122E010206071A0711EE020797C
:1003B00030B1012808D002280AD0052810D10BE05E
:1003C00001F09CF9A0710DE001F0D2F9A07109E0F3
:1003D00001F0C0F9A07105E001F0D6F9A07101E0CB
:1003E00001205BE700BF01E0012057E700BF01E00B
:1003F000012053E700BF002050E70000F802002072
:10040000400000204002002010B5064A0649074877
:10041000006800F05FFF041E01D0204610BD0020E0
:10042000FCE70000241E0000141E00001C00002039
:1004300010B5002000F07EF810BD000002461068E4
:1004400008B93B4800E000200146107A062830D267
:10045000DFE800F0030C151C232850684861506841
:100460004860506808675068C86725E050680861B0
:1004700050684860506808675068C8671CE050685A
:100480008860506808675068C86715E050688860E1
:100490005068C8665068C8670EE050684860506889
:1004A000C86609E0506888605068C8665068886708
:1004B00002E06FF00200704700BF507A20B10128BF
:1004C00011D002282DD11DE0086E536898430866AC
:1004D000486E536898434866D1F8B800536898430B
:1004E000C1F8B80020E0086E536818430866486EEB
:1004F000536898434866D1F8B80053681843C1F868
:10050000B80011E0086E536898430866486E536857
:1005100018434866D1F8B80053689843C1F8B8004A
:1005200002E06FF00200C6E700BF0020C3E7000052
:10053000008000402DE9F04104460CB9134800E06A
:10054000002007463D6CBD6400261BE005F001005D
:10055000B0B1C4EBC4000E4901EBC00050F8260056
:1005600070B1C4EBC4020B4B03EBC20252F826007D
:10057000C4EBC4020B4603EBC20252F826108847B4
:10058000761C6D08002DE1D1BDE8F08100800040AF
:1005900040030020780300200146086808B9044899
:1005A00000E000200246506A4B6818407047000087
:1005B0000080004030B503460C46186808B91C4856
:1005C00000E00020014614B1012C0AD104E0886A41
:1005D0005D68A843886207E0886A5D68284388628E
:1005E00002E06FF0020030BD00BF22B1012A0BD043
:1005F000022A17D111E0C86A5D68A843C862C86DB5
:100600005D68A843C86510E0C86A5D682843C86291
:10061000C86D5D68A843C86507E0C86D5D6828437C
:10062000C86502E06FF00200DDE700BF0020DAE7F6
:100630000080004002680AB9034A00E00022114627
:1006400042688A63704700000080004002680AB96F
:10065000034A00E00022114642680A627047000027
:100660000080004002680AB9034A00E000221146F7
:100670004268CA61704700000080004070B50B46B8
:1006800014464168002214E001F001057DB10568BF
:10069000C5EBC505084E06EBC50545F822300568D3
:1006A000C5EBC505054E06EBC50545F82240521CB5
:1006B00049080029E8D170BD4003002078030020DC
:1006C00070B504460E46074850F83450014601EB19
:1006D000C40001F033FBA86A18B131462846AA6A63
:1006E000904770BD300300202DE9F04704460D46C9
:1006F00016465948844201D1002006E057488442FA
:1007000001D1012001E04FF0FF3082463146204602
:1007100000F068FC071E02D03846BDE8F087606A2A
:1007200040F02000606200204D4901EBCA01487191
:10073000206001202060002020636060206800F4B9
:100740004070B0F5407F63D0206840F48060206046
:100750004FF0000951E04FF00108206820F0400000
:100760002060052001F008FA206800F48070B0F5E0
:10077000807F01D14FF00008206820F080002060C9
:10078000052001F0F9F9206800F40070B0F5007F51
:1007900001D14FF00008206840F080002060052063
:1007A00001F0EAF9206800F40070B0F5007F01D094
:1007B0004FF00008206840F040002060052001F064
:1007C000DBF9206800F48070B0F5807F01D04FF035
:1007D0000008B8F1000F0ED0206820F080002060E3
:1007E000052001F0C9F9206840F080002060052054
:1007F00001F0C2F904E009F10109B9F1100FAADB17
:1008000000BFB8F1000F02D16FF0080085E700BF0C
:1008100000202060012020600020206360601148DB
:10082000854203D1206840F4004020600020E06051
:100830006061A068A0602069206100202064E069F8
:1008400040F08000E061606A40F08000606229460C
:10085000204600F0EDF860E700D0014000E00140E4
:100860003003002040E1330070B50446049D1E466D
:100870000BB9002070BDB3F5807F02DD6FF0020080
:10088000F8E74FF40040A060A068A060206800F086
:10089000010010B96FF00400ECE7206840F002009E
:1008A00020602362206B40F00100206300BF60687D
:1008B00000F010000028FAD141F00100E06212E0DF
:1008C000A06800F4FE4030B1206B40F004002063CB
:1008D0006FF00800CEE7606800F0020018B9E06A27
:1008E00002F8010B5B1E002BEADCA06800F4FE405E
:1008F00030B1206B40F0040020636FF00800B9E7CE
:1009000025B1206B40F00200206303E0206B40F033
:100910000400206300BFA06800F001000028FAD0A6
:100920000120A0603DB900BFA06800F04000002891
:10093000FAD04020A060A06800F4FE4010B16FF033
:10094000080097E7304695E770B50446049D1E46BB
:100950000BB9002070BD4FF40040A060A068A060FB
:10096000206840F00200206000BF606800F01000C6
:100970000028FAD121F00100E06203E012F8010B37
:10098000E0625B1E002B04DD606800F010000028B0
:10099000F4D0206B40F00100206316E0A06800F462
:1009A000FE4050B1206B20F002002063206B40F02D
:1009B000040020636FF00800CCE7606800F01000CE
:1009C00018B912F8010BE0625B1E002BE6DC25B1C2
:1009D000206B40F00200206303E0206B40F0040035
:1009E000206300BFA06800F001000028FAD00120B9
:1009F000A0603DB900BFA06800F040000028FAD018
:100A00004020A060A06800F4FE4010B16FF0080024
:100A1000A0E730469EE70021C160416181688160A6
:100A2000016901610021016001210160704700003E
:100A30002DE9F041074688462B48804538D1384695
:100A400000F0C8FA2949B0FBF1F40120C0EB5405CD
:100A5000C0EB540604F0010000B16D1CB5F5007F39
:100A600003D36FF00200BDE8F08116B96FF0020009
:100A7000F9E77E63BD63384600F0ACFAB0FBF8F4EA
:100A80000320B4FBF0F0451E60000321B0FBF1F041
:100A9000461E04F0010000B16D1C0F2D01D80F2E71
:100AA00002D96FF00200DEE746EA0520F86319E09C
:100AB000384600F08FFAB0FBF8F40120C0EB540583
:100AC000C0EB540604F0010000B16D1CB5F5007FC9
:100AD00002D36FF00200C6E716B96FF00200C2E75A
:100AE0007E63BD630020BEE740E13300801A06004C
:100AF00070B504461948844201D1002006E0184828
:100B0000844201D1012001E04FF0FF300546002072
:100B1000E0606061A068A06020692061E06940F049
:100B20008000E061606A40F0800060620D4850F82B
:100B3000350038B12046FFF76EFF6FF00E012846F2
:100B4000FFF7BEFD00202060204600F071FA061E6F
:100B500001D0304670BD0020FCE7000000D001400D
:100B600000E001403003002070B5002500240DE0B6
:100B7000204600F015F804EB4401074A02EB81001F
:100B8000FFF75CFC08B16FF00705641C03480068C0
:100B90008442EDD3284670BD041E0000101E0000E4
:100BA00010B5044604EB4401024A02EB8100FFF752
:100BB0004DFD10BD041E000070B53948FFF798FFC9
:100BC000384A39493648FFF78FFD041E01D02046C8
:100BD00070BD0F20002807DB00F01F0201219140AB
:100BE000324A430942F8231000BF0F20002817DBC8
:100BF00000F01F0101228A402D49430941F82320BA
:100C000000BF00BF00BFBFF34F8F00BF00BF00BFDA
:100C100000BF00BF00BFBFF36F8F00BF00BF00BFAA
:100C200000BF0F200121002804DB4A07130E214AD0
:100C3000135406E04A07150E1F4A00F00F031B1F4E
:100C4000D55400BF0F2000F00FFD1C481C49C860A0
:100C50001C481D49C8601D48FFF7F0FB1C48FFF702
:100C6000EDFB1C48FFF7EAFB1B48FFF7E7FB1B48BF
:100C7000FFF7E4FB1A48FFF7E1FB0022194913488C
:100C8000FFF7FCFC002201211048FFF793FC0F48FE
:100C9000FFF7D0FC182000F0E7FC002098E70000E8
:100CA00000E00140A81D0000801A060080E200E07C
:100CB00080E100E000E400E018ED00E08D1D0000A0
:100CC000D8020020811D0000E8020020AC1D0000B9
:100CD000B81D0000C41D0000D01D0000DC1D000078
:100CE000E81D00006D17000000BF704770B50025BB
:100CF00000240AE004EB4401074A02EB8100FFF7FD
:100D00009DFB08B16FF00705641C0448006884422D
:100D1000F0D3284670BD0000F41D0000001E000046
:100D20000020704700F0006149B120F000604FF0F2
:100D30008041896C01434FF08042916406E04FF09E
:100D40008041496A01434FF080425162704700F090
:100D5000006149B120F000604FF08041896C81430F
:100D60004FF08042916406E04FF08041496A814330
:100D70004FF08042516270472DE9F04105468846A8
:100D80004FF08040806800F460674FF08040806AD8
:100D900020F00700401D4FF080418862002D57D0A1
:100DA000032D04D0062D0DD0092D69D12BE04FF075
:100DB0008040806820F4606040F4C0604FF0804163
:100DC000886060E04FF08040806840F400304FF071
:100DD00080418860481100F0E9F818B16FF009000F
:100DE000BDE8F0816F48006940F400406D4908613A
:100DF0004FF08040806820F4606040F440604FF025
:100E0000804188603FE04FF08040806840F40030CF
:100E10004FF080418860481100F0C8F810B16FF0C1
:100E20000900DDE75F48006940F400405D49086162
:100E30000846806940F0100088614FF0804080686B
:100E400020F4606040F440604FF0804188601AE018
:100E50004FF08040806840F480204FF080418860EF
:100E6000081100F0A3F810B16FF00900B8E74FF0D7
:100E70008040806820F460604FF08041886002E02C
:100E80006FF00200ACE700BF4FF4005000F08EF8A6
:100E900068B14FF08040806820F4606007F46061C2
:100EA00008434FF0804188606FF0090098E70DB368
:100EB000032D04D0062D0BD0092D1CD111E04FF0CD
:100EC0008040806820F480204FF08041886012E0EC
:100ED0004FF08040806820F480204FF0804188608F
:100EE00009E04FF08040806820F480204FF080417E
:100EF000886000E000BF00BF00F026F94FF080409E
:100F00008068C0F382142848006800F03006A6B953
:100F10004CB94FF08040806A20F00700801C4FF0F1
:100F2000804188623CE04FF08040806A20F00700FA
:100F3000401C4FF08041886232E0102E12D13CB943
:100F4000B006806A20F00700801CB106886227E0A6
:100F50004FF08040806A20F00700401C4FF0804135
:100F600088621DE04CB94FF08040806A20F0070095
:100F7000001D4FF08041886212E0012C07D1A007CC
:100F8000806A20F00700801CA107886208E04FF00B
:100F90008040806A20F00700401C4FF0804188624A
:100FA00000201DE7006000400068004010B50446C6
:100FB0004FF47A7000F094FE00BF4FF080408068DC
:100FC000204008B1002010BD00F006FE0028F4D03B
:100FD0000020F8E70146024800684008704700001A
:100FE0003C00002070B504460D460D48844206D1F1
:100FF0004014FFF7ACFE0B48FFF720FA0DE00A485B
:10100000844207D14FF08050FFF7A1FE0748FFF759
:1010100015FA02E06FF0010070BD0020FCE700004F
:1010200000D001407C1E000000E00140881E00004E
:101030003EB504461748844210D10020009001902C
:1010400002901548006800901348406801906014B1
:10105000FFF768FE6846FFF7F1F917E00F48844292
:1010600011D100200090019002900D48006800907E
:101070000B48406801904FF08050FFF753FE6846E0
:10108000FFF7DCF902E06FF001003EBD00202060B8
:1010900000BFFAE700D001407C1E000000E00140E4
:1010A000881E000070B505460C461D48854211D1CA
:1010B0004015FFF74CFE207818B91A48FFF7BEF923
:1010C00002E06FF0020070BD6078012802D116487E
:1010D000FFF7B4F9154885421FD10015FFF737FE19
:1010E000207818B91248FFF7A9F910E020780128F4
:1010F00003D11048FFF7A2F909E02078022803D1B4
:101100000D48FFF79BF902E06FF00200DBE7607823
:10111000012802D10948FFF791F90020D3E7000028
:1011200000200440401E0000341E00000030044037
:10113000581E0000641E0000701E00004C1E0000BF
:1011400000B500F065FD00BD30B54FF08044A468E7
:1011500004F46063B3F5406F02D14FF4004011E036
:10116000B3F5C06F02D14FF4FA500BE00A4C24687B
:1011700004F0300109B9094804E0102901D10848F8
:1011800000E008484FF08044A468C4F3821220FABB
:1011900002F4054D2C6030BD0068004000366E0141
:1011A000006CDC0200D8B8053C00002010B52648D1
:1011B000264908602648006820F4807024490860A9
:1011C00022488030006840F4700020498031086077
:1011D00000BF00BF00BFBFF34F8F00BF00BF00BF05
:1011E00000BF00BF00BFBFF36F8F00BF00BF00BFD5
:1011F00018490020FFF7C0FD2020FFF793FD402095
:10120000FFF790FD8020FFF78DFD4FF40070FFF792
:1012100089FD4FF48060FFF785FD4FF40050FFF724
:1012200081FD4FF40040FFF77DFD4FF48030FFF764
:1012300079FD4FF40030FFF775FD4FF08050FFF758
:1012400071FDFEF7F3FF10BD0000000008ED00E0A7
:10125000003000400000014010B5024800F006F8E0
:1012600010BD0000003004400161704770B50446B5
:101270001448844201D1002006E01348844201D181
:10128000012001E04FF0FF300646701C00B970BD30
:101290002569256105F01B0038B10C4850F826106F
:1012A0002B463246204600F0E1F805F06B0030B1E5
:1012B000074850F826103246204600F091F900BF4A
:1012C000E5E700000020044000300440200000203A
:1012D000280000202DE9F84F04460D4693464FF0B4
:1012E0000008C1464FF0FF372C48844201D100204E
:1012F00006E02B48844201D1012001E04FF0FF308D
:101300000646701C18B96FF00200BDE8F88F594608
:101310002046FFF7C7FE009008B10098F5E70020CF
:10132000204941F82600204941F82600287840F05D
:10133000010069880843A9880843E9880843298986
:1013400008432060194800684008E968B0FBF1FADA
:1013500000BF7F1CC7F107002AFA00F80AFA07F05D
:10136000A0EBC819B8F1000F01D1042FF1DB48EA56
:1013700007406061B9F1030F03D9A9F10300A0612F
:1013800002E009F10300A0610020064941F82600AF
:10139000054941F8260000BFB7E7000000200440DF
:1013A0000030044020000020280000203C000020E5
:1013B00001468868C0F30520704701468868C0F37D
:1013C0000540C0F1080070472DE9F04104460D4684
:1013D0001DB96FF00200BDE8F0812148844201D1BF
:1013E000002006E01F48844201D1012001E04FF0B7
:1013F000FF300646002E02DA6FF00200EBE72868A5
:1014000010B94FF0FF30E6E7606910B96FF00400E3
:10141000E1E7154850F8260010B16FF00500DAE753
:101420006868002801DC0020D5E70F4901EB860041
:10143000294600F08EFC10B16FF00500CBE70020CC
:10144000A860276927613B4632462946204600F0BE
:101450000DF8E06840F01B00E0600020BBE70000F2
:101460000020044000300440200000202DE9F04717
:1014700005460C46164698462CB9E86820F01B0035
:10148000E860BDE8F0872846FFF792FF0746D4E9F9
:101490000101A0EB010909E0E869C1B2A268501C92
:1014A000A06020688154A9F101097F1E17B1B9F12C
:1014B000000FF1D108F0080060B11F4901EB860070
:1014C00000F03CFCE06820B16FF00B012046E268C0
:1014D0009047D6E708F0030060B1174901EB86009A
:1014E00000F02CFCE06820B16FF008012046E268B3
:1014F0009047C6E7D4E9011088420ED1E86820F091
:101500001B00E86000200C4941F82600E06818B193
:1015100000212046E2689047B3E7D4E9010108388A
:10152000814204DDD4E90101401A686001E008202D
:10153000686000BFA5E70000200000202DE9F04111
:1015400004460F46904600261E48844201D10020E2
:1015500006E01D48844201D1012001E04FF0FF3038
:101560000546002D03DA6FF00200BDE8F0816069E6
:1015700010B96FF00400F8E717B96FF00200F4E754
:10158000124850F8250010B16FF00500EDE700BFDC
:101590000E4901EB8500012100F0DBFB0028F7D1AB
:1015A000204600F0F9FB04E0B95D204600F010F899
:1015B000761C4645F8DB054901EB850000F0BEFBD3
:1015C0003046D2E7002004400030044028000020CC
:1015D00000BF826802F08002002AFAD1C161704720
:1015E0002DE9F04105460C4616461E4850F82640A7
:1015F0002CB9E86820F02000E860BDE8F0812846BA
:10160000FFF7DBFE0746D4E90101A0EB010808E083
:10161000A168481CA0602068405CE861A8F101084E
:101620007F1E17B1B8F1000FF2D1D4E90101884251
:1016300011D1E86820F02000E8600020094941F855
:10164000260001EB860000F079FBE06818B100216C
:101650002046E2689047E86840F06B00E86000BF11
:10166000CBE7000028000020002809DB00F01F0263
:10167000012191404209920002F1E022C2F80011DA
:10168000704702E008C8121F08C1002AFAD170474B
:101690007047002001E001C1121F002AFBD17047F2
:1016A000014600E0491E0029FCD17047FFF784FA8B
:1016B00000F09AF800F0B2F900F02CF900F0A4F86C
:1016C0000B4800F0B3F808210A4800F013FA0DE0C7
:1016D0000948006850B90748FEF7DAFD08210548B7
:1016E00000F03EFA0821034800F004FAF0E7000099
:1016F00040020020140000200C00002010B5044817
:10170000FEF74AFF04460CB9002010BD0120FCE79B
:10171000B81D000010B50248FEF798FF10BD00008C
:10172000DC1D000010B50248FEF79CFF10BD000054
:10173000DC1D000010B50248FEF788FF10BD000058
:10174000C41D000010B50248FEF78CFF10BD00005C
:10175000C41D000010B50448FEF71EFF04460CB976
:10176000002010BD0120FCE7AC1D00007047000008
:1017700010B50448FEF710FF04460CB9002010BD58
:101780000120FCE7D01D000010B50448FEF704FF5F
:1017900004460CB9002010BD0120FCE7E81D000044
:1017A00038B504460D46009401231A4669461420B4
:1017B00000F0C6F9002301226946142000F0B0F9B8
:1017C0009DF80000287038BD38B505460C468DF8E8
:1017D000005020788DF80100002302226946142071
:1017E00000F0AEF938BD000010B50649002000F049
:1017F000F9F80448007800F0020008B9002010BD94
:101800000120FCE74000002010B50749002000F04F
:10181000E9F8054800884FF6FD7108400249088044
:10182000002000F015F910BD4000002010B504465E
:101830003549BB2000F0D6F83448B0F876014CF6B4
:10184000FF7108403149A1F876012F49BB2000F013
:10185000FFF82F48FFF724FF2B493231D42000F046
:10186000C1F829493431D52000F0BCF826493C3173
:10187000D92000F0B7F824493E31DA2000F0B2F860
:1018800021494231DC2000F0ADF81F494431DD2010
:1018900000F0A8F81C494631DE2000F0A3F81A49F0
:1018A0004831DF2000F09EF81848B0F8A8012080E9
:1018B0001648B0F8AA0160801448B0F8B201A080C0
:1018C0001248B0F8B401E0801048B0F8B8012081A7
:1018D0000E48B0F8BA0160810C48B0F8BC01A08194
:1018E0000A48B0F8BE01E0810848B0F8760140F43B
:1018F00040500649A1F876010349BB2000F0A8F842
:101900000348FFF7CDFE10BDB601002040000020C7
:10191000004C1D0008B541F288302E4908804FF474
:10192000F06048804FF4044088804AF26150C880DB
:101930002949BA2000F056F89020009069466020AE
:1019400000F0C4F8002000906946BA2000F0BEF80C
:101950006946602000F0BAF81E4800881F490886D2
:101960001C48408888871B48C088A1F87400194823
:101970008088A1F8B6013031182000F0A7F8174987
:101980003C311E2000F0A2F8144974313A2000F0D6
:101990009DF811494231DB2000F098F80E494231A0
:1019A000DB2000F01FF807E00D48FFF779FE0A4939
:1019B0004231DB2000F016F80848B0F8B60100F418
:1019C0000040B0F5004FEFD00349BA2000F07EF898
:1019D00008BD000000000020B401002040000020ED
:1019E0000053070038B505460C468DF8005001231A
:1019F0001A4669466C2000F0A3F8002302226946CB
:101A00006C2000F08DF89DF8010020809DF800000A
:101A1000217840EA0120208038BD000010B50A4935
:101A20003D20FFF7DFFF06E00848FFF739FE0649D3
:101A30003D20FFF7D7FF04487A3890F87A0000F08D
:101A400001000028F0D110BDBA00002000530700AB
:101A5000F8B505460C46032731E08DF80050207894
:101A60008DF80100208800128DF802000023032267
:101A700069466C2000F064F81348FFF711FE8DF8FA
:101A8000005001231A4669466C2000F059F80020E6
:101A90008DF800008DF801000023022269466C20B9
:101AA00000F03EF89DF801609DF8000040EA06262F
:101AB0002088B04201D10020F8BD781E47B2002F27
:101AC000CBDC0120F8E700000053070038B50546DD
:101AD0000C468DF8005020788DF801002088001207
:101AE0008DF802000023032269466C2000F028F8DC
:101AF00038BD000070B505460C46064805604460D8
:101B0000012005490860034904480068FFF75CFCB0
:101B100070BD0000E80200200C000020080000203A
:101B2000F8B504460D4616461F4633462A4621465A
:101B300002480097FEF798FEF8BD000000E0014063
:101B4000F8B504460D4616461F4633462A4621463A
:101B500002480097FEF7F8FEF8BD000000E00140E3
:101B600070B504460D462A46214602480068FFF734
:101B7000E5FC70BD0800002010B50446144800685C
:101B8000002802DD6FF0050010BD0CB90020FBE756
:101B9000204600F053F80AE04FF0E020006900F41E
:101BA000803020B10A480068401E09490860084892
:101BB00000680028F0DC00BF4FF0E0208069054994
:101BC00009688842F8D800F0ABF80020DCE7000094
:101BD000300000203400002000B50B4800680028C9
:101BE00001DA002000BD0848006850B94FF0E0203D
:101BF000806906490968884203D800F091F80020FE
:101C0000F0E76FF00500EDE7300000203400002021
:101C100000B54FF0E020006900F4803058B106486C
:101C20000068002805DD04480068401E024908607D
:101C300001E000F075F800BD300000202DE9F0470C
:101C400082464FF0E020D0F81890006920F48030F0
:101C50001E4908604FF0E020006900F0010060B903
:101C60006FF07F404FF0E0214861886105200861F6
:101C70006FF07F494FF0807403E04FF0E02040693F
:101C8000441C13480068AAFB00700146114A002357
:101C90003846FEF761FA0546B5FBF4F00E490860D8
:101CA000B5FBF4F004FB10564E4509D30846006816
:101CB000401C0860A6EB0900201A0849086003E0F0
:101CC000A9EB060005490860BDE8F0873800002050
:101CD0003C00002040420F00300000203400002073
:101CE00010B504460D480068002802DD6FF00500BD
:101CF00010BD0CB90020FBE72046FFF79FFF074807
:101D00000068002807DD4FF0E020006940F0020085
:101D10004FF0E02108610020EAE7000030000020D9
:101D2000044800684FF0E021086148170249086044
:101D300070470000380000203000002000BF00BFC6
:101D400000BFBFF35F8F00BF00BF00BF0021016075
:101D50007047024600BF52E8000F10B16FF0050057
:101D6000704742E800100028F5D100BF00BF00BF57
:101D7000BFF35F8F00BF00BF00BF00BFF0E70000F0
:101D8000014A1160704700000C000020014A1160F8
:101D9000704700001000002000B502460B211046DD
:101DA000FFF762FA00BD0000000000000000000024
:101DB0004000000000000000000000008000000063
:101DC0000000000000000000000100000100000011
:101DD0000000000000020000000000000000000001
:101DE00000200000010000000000000010000000C2
:101DF00000000000000000000010000000010000D2
:101E000001000000000000000020000001000000B0
:101E100001000000000000030000000000000000BE
:101E200000C20100000000000000000008000000E7
:101E30000400000000000000C000000003000000DB
:101E4000000000003000000003000000000000005F
:101E5000003000000300000000000000000C000043
:101E60000300000000000000030000000400000068
:101E700000000000C000000004000000000000009E
:101E80000003000002010000000000000C00000040
:101E90000201000000000000F0000000020000004D
:101EA00000000000003C00000200000000000000F4
:101EB0000F0000000300000000000000003C0000D4
:101EC00002000000000000000F00000003000000FE
:101ED000000000000F0000000200000000000000F1
:101EE0000400000004000000081F000000000020A3
:101EF0004000000082160000481F00004000002043
:101F000070130000921600000000000000000000A6
:101F1000003004400000000000000000000000004D
:101F2000000000000030044000000000000000003D
:101F30000000000000000000FFFFFFFF00000000A5
:081F40000000000000D8B80504
:040000050000011DD9
:00000001FF
